:2000000000400020AD23010001C9011001C9011001C9011001C9011001C9011001C901108D
:1C00200001C9011001C9011001C9011001C9011001C9011001C901103FC9011089
:20003C0080B54FF4FC720FF278011A480DF0ACF8194800210170012141740221C17601BD5F
:20005C002DE9F0410FF25021144838220B684C688D68CE680F69D1F814C0D1F818E0D1F824
:20007C001C80036044608560C6600761C0F814C0C0F818E0C0F81C8020312030521EE5D1F7
:20009C004A688B68CC680968016042608360C460BDE8F081480400215903002100C000210F
:2000BC00410500217D0500212D06002170B51D46004C204787B2000010B5014800470000FD
:2000DC00D509000070B5614C6148254650358047022809D14034E1885E4A914204D1E97C5E
:2000FC00890601D4911DE18070BD70B557495A4A084650300378002B10D08379012B0DD181
:20011C00037C5B09DB0709D0097D544DC1746C7F20202043687790476C7770BDFF21C17420
:20013C00904770BD10B54E48484C804702280ED121464031CA88474B9A4208D1CA7C5209CE
:20015C00D20704D0227D920601D49A1DCA8010BD70B53E4843494030C07C4009C00707D032
:20017C003E4D41482C8B2043288388472C8370BD884770BD10B53B48344CAC388047214609
:20019C0053310A789309DB0705D04034A2730A7803231A430A7010BD2C4940310871182876
:2001BC0012D004DC0A280BD00B2804D10AE025280CD02A280CD02D4980004018C0687047DE
:2001DC002B4870472B4870472B4870472B4870472B48704770B504461C484E252D5CAE09AB
:2001FC00F60716D0067D3007000F052803D00120054202D00DE00220FAE7E80905D07006D1
:20021C0003D54868800F012803D05B085B0052085200062B03D01020022B11D011E0FB20F7
:20023C00024002232046FFF741FF002807DAC100611A2039497E1422114200D1002070BD93
:20025C00024303432046FFF731FF70BD4401002137CB000004140000EBC80000A800002142
:20027C00F5B4000053AD00002020000080DF00001D050021F9040021CD040021930400210F
:20029C006D04002110B5034CFFF716FF20680028FAD110BD0011044068610000F825F965B0
:2002BC00F9754500450045002600260057A3520052004C00401F401F401F3F000000000053
:2002DC00304000400140034007400F404F40CF40CF41CF43CF47CF4FCF3FCF2FCF1FCF0F6C
:2002FC00000000000000000000000F00080000003F00000040003F000000040068000E0093
:20031C00DC00060043001A00050000000000020000000000000000000400C00000000400B3
:20033C00C000000007000000000000000000000000000000000000003040004001400340A6
:20035C0007400F404F40CF40CF7FCF6FCF5FCF4FCF3FCF2FCF1FCF0F00000000000000009D
:20037C0050C00091007070C00091007082312100319110B10070018101B100A1823132910D
:20039C0010B101911110418141227740F106007051C0019130181039833108D01831416FD1
:2003BC003100319110B18314141683680070251050C00091F4C340C12014036F3110410497
:2003DC005082F0229840512622C082312100319110B163393110410482C08231210031919B
:2003FC0010B163393110A2C082312100319110B150101531051405920070676452C03110A6
:20041C0031066131C1026A6412C13110213971065131E1026A64007051C0019101CCE2C0CC
:20043C006A64676411C1C2C06A6450B054B0007140804022D6440022C94060B08180111EC9
:20045C00C944007054A064B0F0800022C9404012B09032B070C1DF6811C122C16A6470C1C0
:20047C00E46851C00191E2C0823160820200329110B130C2EE68538253395339B16460C347
:20049C00F4688012B09032B00070676401C122C16A6401C1C2C06A645382B164C012B09074
:2004BC0032B00070676472C281C06A6422C111C16A6402C011C16A6462C031C36A6462C3D2
:2004DC0011C16A6402C311C16A6453825339B164E2C36F6411221C4142C281C86A6452C24E
:2004FC0011C16A6472C2E1CE6A6402C281C86A6402C201C86A64B0C030690070676442C211
:20051C0001C86A6452C211C06A6472C2E1C06A6402C001C16A6462C001C36A6422C101C127
:20053C006A6462C301C16A6402C301C16A645382B16400708180111E5C4150B054B000712B
:20055C00408040225D4154A064B0F1800122514500700022514160B04E61000000000000AA
:20057C000000000000000000067305720B720E7250B00071818060B050A09280F0EFF1928C
:20059C0002936A6741228C458080F1C11004301601110114016CB561B661B761B861B9618D
:2005BC00BA61BB61BD61BF61C161C36126632D63F0C002043231412A121432160111211412
:2005DC00016CDA61C561E061C761CB61B561B561B561F461C561FA61C761CB61B561B56104
:2005FC00B561F461C561FA61C761CB61B561B561B561E761C561ED61C761CB61B561B56121
:20061C00B561CF61CF61CF61CF61CF61CF61C064CF61F964CF610665CF613265CF6174676A
:20063C00CF611166CF61C0644E65F964CF61066511663265CF618280E0DFF2926A67B0B044
:20065C00D661B1B00673057230B06C61D0CF6A6784C203C0C0C37C64207851788278E378B7
:20067C001579B6780062C0CF6A6784C203C0C0C37C64307861789278F3781579C678006250
:20069C00B0CF6A6784C203C0C0C37C6440787178A27803791579D678109221923292439281
:2006BC005492659256911FC0FF914039F00601101031101400927067CF61E3B054A0F08076
:2006DC0050221A4640800022BE461262E3A000C86091598150B0918041228E46A0CF6A6734
:2006FC0012828231823942398B641282F2062F101F312F141682D622334640C1346200C5AF
:20071C0020140D6F6D39DE10F4C34E0482C082312E006D39A2C082312D001A828A39FA0606
:20073C002082803180390BC00B18BC10AC18038239149B141082F0060110103110145181C2
:20075C0010140C14C622C94631D0C1266462021011C0013010C00118021882312100C126C2
:20077C00919103B013B063B053B041800122BE46B481C491D581B51C774E95186591F0803E
:20079C00102269428C623D9110B13E9110B1E08000228146E6228142E0B0951865910F926B
:2007BC005981F914F0805022114210228C464D6390CF6A6763B052A03082F2C0200402107E
:2007DC0011C0013010C00118021882312100C1269191919113B003B063B053B064B054B055
:2007FC00007141800122BE4663B064B0F08050221142B181C191D1819118619131B0A462D0
:20081C002967E0A059810582591480C0007163B0BA6A6962E3A0018262818231823D80EF61
:20083C00F19202936A6703A0007037824739873930828039F006021011C0013010C0011849
:20085C00021882312100C126819102B012B030824039F006021011C0013010C001180218E9
:20087C0082312100C126919103B013B063B053B0007153A062B052B041800122BE46A4816E
:20089C00C491D581B51CFE4E95186591F0801022F0428C62B481C491D4814518751C084FEB
:2008BC00F0801022F0428C623D9110B13E9110B1E08000221247E6221243E0B065910F92DC
:2008DC005981F914F0805022114210228C4630632967E0A0598105825914F0C0007162B038
:2008FC00226BF062A2808B64CF6112824239F2068B6050B00071CF6170CF6A674082418096
:20091C000122BE46A481C491D58195186591F18011228C46336B41800122BE46A481C491AB
:20093C00D581C51C1C4B95186591F08010223F438C6260CF6A67408241800122BE46B48169
:20095C00C491D58195186591F18011228C46506B41800122BE46B481C491D581C51CB44A55
:20097C0095186591F08010225C438C62E092D08200226B47C0B20070A080F022874330B033
:20099C0002C1623101C0A080001E8043F022814380F86031603981632010101A136F236E5A
:2009BC0011161216826B00702DE9F84FDFF81885DFF8181588F80000002008600921DFF891
:2009DC00100501700D2141804FF408718180DFF80405DFF8041501608A7EDFF80005027042
:2009FC00FF2ACB7E437008BFFF2B0D7F85704E7FC6708F7F0771C97F417115D1FF2D08BFE8
:200A1C00FF2E11D1FF2F08BFFF290DD1DFF8D0140A7802704A7842708A788270CA78C27025
:200A3C000A79027149794171DFF8B81402780A70FF2542784A7082788A70C278CA7002791E
:200A5C000A7140794871DFF8A014DFF8A004057045708570C5700571457100200880DFF888
:200A7C009014DFF89004466B70780870DFF8881430780870DFF88414B0780870DFF880142D
:200A9C0070690079401E0870DFF87814F0780870DFF87414B069086008B914F0BBFAF0691C
:200ABC00DFF86844206008B914F0B4FA2068DFF86074006880472168091D384609688847D5
:200ADC00DFF85004DFF850143862DFF850047862306A086008B914F09DFA706ADFF8401492
:200AFC00086008B914F096FADFF838B4DFF838649BF8040014F01EFE306008B900F046B9F0
:200B1C009BF80500DFF8247414F014FE386008B9306838E19BF80600DFF8144414F00AFEBE
:200B3C00206020B9306814F00DFE38682BE19BF80700DFF8009414F0FDFDC9F8000038B938
:200B5C00306814F0FFFD386814F0FCFD20681AE1DFF8A41309789BF80000DFF8DCA3891C24
:200B7C00484380B214F0E6FDCAF8080058B9306814F0E8FD386814F0E5FD206814F0E2FD68
:200B9C00D9F80000FFE0DC480078010000F00381BBF80210DFF8A4B3484380B214F0CAFDFD
:200BBC00CBF8040078B9306814F0CCFD386814F0C9FD206814F0C6FDD9F8000014F0C2FD6F
:200BDC00DAF80800DFE0CC48007814F0B3FDDC49086098B9306814F0B5FD386814F0B2FDA1
:200BFC00206814F0AFFDD9F8000014F0ABFDDAF8080014F0A7FDDBF80400C4E0BE480078A9
:200C1C001C21484314F096FDCE490860B0B9306814F098FD386814F095FD206814F092FDEF
:200C3C00D9F8000014F08EFDDAF8080014F08AFDDBF8040014F086FDC148A3E0AE4800787B
:200C5C00400114F077FDC0490860D0B9306814F079FD386814F076FD206814F073FDD9F8CF
:200C7C00000014F06FFDDAF8080014F06BFDDBF8040014F067FDB248006814F063FDB148A4
:200C9C0080E09D480078000114F054FDAF490860F0B9306814F056FD386814F053FD2068B1
:200CBC0014F050FDD9F8000014F04CFDDAF8080014F048FDDBF8040014F044FDA04800681A
:200CDC0014F040FD9F48006814F03CFD9E4859E089480078000114F02DFD9D49086010BB7B
:200CFC00306814F02FFD386814F02CFD206814F029FDD9F8000014F025FDDAF8080014F0BC
:200D1C0021FDDBF8040014F01DFD8D48006814F019FD8C48006814F015FD8B48006814F0BC
:200D3C0011FD8A482EE0744800783021484314F001FD8849086070BB306814F003FD3868F7
:200D5C0014F000FD206814F0FDFCD9F8000014F0F9FCDAF8080014F0F5FCDBF8040014F07D
:200D7C00F1FC7748006814F0EDFC7648006814F0E9FC7548006814F0E5FC7448006814F015
:200D9C00E1FC7348006814F0DDFC002014F042F94FF4804192E03168012008710022306898
:200DBC00057330684573306885733068C573306805743068457400203168C8723168487148
:200DDC00A0213068C180032101720720316848720020316888722821306841820121C1769C
:200DFC00002031684877316881F85E00012031680877316881F85D00396808713868057315
:200E1C0038684573386885733868C573386805743868457400203968C87239684871396886
:200E3C0088724FF420703968C88008818A7401213A68D17421680D7321684D7321688D7375
:200E5C002168CD7321680D7421684D7400212268D172012122681171002122685171216847
:200E7C00C8800881002088722168887405202168C8743948006880470546294800680068C0
:200E9C00804727490968091D00200968884719481C49C06809780088084330490880284657
:200EBC002F49096888470C212E4800F05DF80F4800F05EF800F060F84FF4005198F800006D
:200EDC00BDE8F44F0AF068BF6E4F0020044F0020604E0020084F0020B63F00502C4E002079
:200EFC00E81200503C4E00200C4F0020344E00206D4F0020807201007B4F00206B4F002032
:200F1C00724F00206C4F0020F04E0020F44E00207C4B002051570100F84E0020615701008A
:200F3C00FC4E0020381E0020104F00203C330020184F0020403300201C330020684E002048
:200F5C00004F0020F42F002038330020884E00208C4E0020904E00204C190020544F002002
:200F7C0050190020F84D0020DFF800F0E5710110DFF800F01D6E0110DFF800F04D71011040
:200F9C00B0B5174C241D20680004070C23D01248006800688047114991F90720824205DDF8
:200FBC0010F1800FB8BF6FF07F00C8718D88BD4210D80A68D4F8D40F801A801C1F2888BF16
:200FDC001F207F1B4008C7404FF6FF70EF19B84238BF071C8F80B0BDEC0100103033002001
:040FFC003010094068
:20100000B41200001810000015AB0110FDB301106DC00110FDAE011099B5011000000000F7
:08102000000000002F00000099
:20102800B01200003C100000B1C00110A9BF011067C0011069B80110000000000000000035
:041048002D00000077
:20104C00B012000060100000BDC00110CDB30110D9BD01106DB3011000000000000000005B
:04106C002E00000052
:2010700000000000601E002004000000000000000000000020000000E8C9011030000000AC
:2010900028100000681E00200400000000000000000000000C000000D8CA01101800000087
:2010B0004C100000701E002004000000000000000000000024000000F0CA0110180000000B
:2010D00000000000781E00200400000000000000000000001000000018CA01102C00000017
:2010F00000100000801E0020040000000000000000000000200000006CCA01102400000083
:20111000FFFFFFFF881E00200400000000000000000000002800000090CA01102400000042
:20113000FFFFFFFF901E00200400000000000000000000001400000008CB011018000000C1
:20115000FFFFFFFF981E002004000000000000000000000058000000B4C90110340000008F
:20117000FFFFFFFFA01E00200400000000000000000000001000000020CB0110180000005D
:20119000FFFFFFFFA81E00200400000000000000000000001C000000B4CA0110240000008A
:2011B000FFFFFFFFB01E00200400000000000000000000003800000044CA011028000000B2
:2011D000FFFFFFFFB81E00200400000000000000000000005400000078C901103C00000027
:0811F000010000007C72010007
:0411F80001000000F2
:0411FC0000000E00E1
:0412000000000F00DB
:0412040032000000B4
:0412080001000000E1
:04120C003C1D002065
:0412100000020000D8
:0412140000000000D6
:0412180001C90110F7
:04121C0000000000CE
:0412200000000000CA
:0412240008000000BE
:04122800000023009F
:04122C000C1C002076
:0412300001000000B9
:04123400541D002025
:0412380008000000AA
:04123C00001D002071
:0412400000000000AA
:0412440000000000A6
:04124800080000009A
:04124C00000000009E
:04125000000000009A
:041254000000000096
:041258000000000092
:04125C00010000008D
:04126000741C0020DA
:041264000600000080
:041268000100000081
:04126C00F41A002050
:04127000000000007A
:041274000000000076
:041278000002000070
:04127C00000000006E
:02128000290043
:02128200010069
:02128400250043
:021286002D0039
:021288002E0036
:02128A002F0033
:02128C0001005F
:01128E00015E
:081290000300000038720100A8
:0812980000000000000000004E
:0412A0000000010049
:0412A4000000030043
:0412A80013C401105A
:0412AC001D550100CB
:0412B000B812000070
:0412B400B81200006C
:0412B8000000000032
:0412BC00541D00209D
:0412C000AD56010026
:0412C4002000000006
:0412C800DC710100D4
:0412CC00E8700100C5
:0412D00029C101101F
:0412D400C74A010004
:0412D8001B4E0100A8
:0412DC00A1C7011095
:0412E000A3C701108F
:0412E4000000000006
:0412E8007B70010016
:0412EC007C6E010013
:0412F000946E0100F7
:0412F400646E010023
:0212F8000200F2
:0212FA000900E9
:0212FC000100EF
:0212FE000000EE
:0113000001EB
:04130400615601002D
:041308009535010016
:04130C00B5490100DE
:04131000813A01001D
:041314004B3B01004E
:04131800CD350100CE
:04131C003DF200009E
:04132000055801006B
:041324005D0B01005C
:0413280015C70110D4
:04132C0025C70110C0
:201330002DE9F04F0D4685B0814615F8010B8DF800004FF49E7009EB00064FF4B0709DF818
:20135000001009EB00044FF4C670891E09EB0007152909F20D1B09F1E70809F1060ADFF82F
:20137000680700F29C83DFE811F00F019A031600440048007A039A03C3009A037D00D600F9
:20139000810088001701E901280204018403E802E8022F02A00209F1A00608222946304626
:2013B00014F068FF05460821304614F05FFF09F1980404222946204614F05CFF04212046EB
:2013D00014F054FF00214842484409EB010290F89F0082F8BF00491C0829F4DB09F1C702F0
:2013F000314609F1D70014F03DFF012088F8000066E3012088F8130062E398F80D1098F835
:201410001600012900F010000DD130B10020707130684108B0790EF0F3FD9AF80000002111
:2014300014F01CFF11E050B14FF4A17009EB0003306842084946DFF8940614F07FFA9AF84F
:2014500000000122002114F005FF012089F86600484611F0D3F809F166010120887188F8D3
:201470000F002DE3012088F8100029E3287888F80E00012088F8140022E398F812100129BC
:201490001DD198F8001001294DD098F81610090704D40E208BF80C00072100E20021421887
:2014B0006B5C567A33436B5452781A4009EB0103491C082983F8FD20F1DB0921EFE198F8B0
:2014D0001610090758BF0E2058D5002142186B5C567A33436B5452781A4009EB0103491C8C
:2014F000082983F8FD20F1DB48460EF051FFDDE2002142186B5C567A33436B5452781A4041
:2015100009EB0103491C082983F8FD20F1DB022088F81500D4E298F81200012804BF98F83E
:201530000000012806D13D208BF80B0001208BF80A00C5E29BF800000128FAD015F8010BBC
:201550008BF8030002224FF489702946484414F091FE01464FF48A700222484414F08AFE47
:2015700001208BF800009BF802000028E1D10C2195E198F81600C00658BF122040F19182AC
:20159000484610F0B3F991E228788BF80B00F02100208BF80A000AE198F81600810707D4AE
:2015B0001121084208BF0F2000F07B821A22F6E009F16601097C012902BF09F16601497CB3
:2015D0000F2911D009F16601497D0A0003D009F16602527C22B109F16602127F012A05D1E7
:2015F000400758BF0F2064D52322D8E021B109F16601497C012904D009F18601897A012974
:2016100005D1400758BF0F2053D52A22C7E02878697800EB0120B081E978A87800EB0120F1
:20163000F0816979287900EB01203082E979A87900EB01207082287A3075A97A687A00EB30
:201650000120F082297BE87A00EB01203083A97B687B00EB01207083297CE87B00EB012008
:20167000B083A97C687C00EB0120F083297DE87C00EB01203084A97D687D00EB01207084CA
:201690004FF4AA7048440490F08A0390307D0290BAF802000190708A0090338AF289B18930
:2016B00048460DF015FD38B198F81600400758BF0F2040F1F68171E0F08909F18601888066
:2016D000308AC880708A0881022089F886000020488009F16601BAF82E00C01DC88309F101
:2016F0008600BAF82C108088884201BF09F18600C088BAF82E10884206D109F18600BAF849
:2017100030100089884217D009F16600407D28B109F166010F208876FE21C0E0FC21484651
:201730000EF05AFF708A0090338AF289B1899AF8000014F08BFDC3E10021B0E0A878E97852
:2017500000EB01262879697900EB0124A879E97900EB012705F10B000490A3B2687AA97A4F
:2017700000EB012080B20390B2B2287A0290BAF802000190B8B200906978287800EB012024
:2017900081B248460DF0A4FC58B198F81600400758BF0F208DD548460FF03CFB1E220F2109
:2017B00034E009F1860000218680C4800781484605B0BDE8F04F11F05DBD28782070687840
:2017D0006070012070727BE198F81700C00758BF162040F1668109F16600407C16281ABFC4
:2017F000BA79012A232210D0002818BF01280BD00F281EBF09F16600007F01281EBF09F160
:201810008600807A012807D12A221621484605B0BDE8F04F11F0E6BA6978287801F0070172
:2018300008402870797B08401CBF411E0842F8720DD0400703D5B87B08B1042003E0F97A2C
:201850000220014201D0F87201E04008F9D1F87AB97A884204BF0020F872F87A08B938813D
:201870001CE0BAF82E00C01D3881F87A042803D1484610F0DAF8A0830123F87A3871A28B85
:20189000B97B11F09FF80146208B884205D3A28BB97B3879012311F095F878801821484655
:2018B00005B0BDE8F04F0EF097BE6978287801F0070108402870F97A08401CBF411E084293
:2018D000F8720DD0400703D5B87B08B1042003E0F97A0220014201D0F87201E04008F9D199
:2018F000F87AB97A884204BF0020F872F87A10B93881B87A0BE0BAF82E00C01D3881F87A23
:20191000042803D1484610F090F8A083F87A3871A28BB97B3879012311F054F80146208BEE
:20193000884205D3A28BB97B3879012311F04AF87880387B40F02000AFE02878697800EB86
:2019500001206082E978A87800EB0120E0826979287900EB01202082E979A87900EB0120C5
:20197000A082A18AE089884288BF0846B97A042904D1B0F5296FD8BF4FF42960E28BE0839D
:201990009042B87A14BF01250025042803D1484610F04BF804E0A089E18A884288BF08466D
:2019B000A28BA083904214BF012100212089628A238B2943904288BF1046984214BF0122F1
:2019D000002242EA01052083A28BB97B3879012310F0F8FF0146208B884205D3A28BB97BDE
:2019F0003879012310F0EEFF78806189208A628B814288BF01466183914214BF0120002080
:201A100005438A4232499AF80020096801EB4211628B8041121DC00F0A7610B1484611F049
:201A300023FF9DF80000142810D145B1E08B0090638BA28B218B9AF8000014F003FC4846E7
:201A500005B0BDE8F04F15210CF0EABB1DB1387840F008003870387840F0200015E0287813
:201A70000F2809D0122804D0142808D016280ED026E00020307123E00120307220E03878CB
:201A900040F00200387040F01000387018E0387B40F00200387340F01000387310E09DF87C
:201AB00000008BF80C0048460FF06CFB40B905B0BDE8F04F074800784FF480410AF072B911
:201AD00005B0BDE8F08F00BFE8320020B5EC0000383300206E4F00202DE9F04FADF1640DB7
:201AF00003F090F9A348A24C0068002501264FF47A71B1FBF0F080B217900FE0A06C677860
:201B1000A5721221401CA064781C60700DA814F095FB606D4FF4000114F08CFB606DBD4AEE
:201B300029464FF0FF3314F081FB5FEA0008F5D0109511A80DF15A0110AA11F0B3FF78B9CA
:201B5000BDF84400102807D120799DF85A10884202D1109800F042FD109808B113F064FF99
:201B70005FEA585008D3E06A05212A4611F0BEFA606BA94913F010FF5FEAD870C0F00B8154
:201B9000E06D14F04FFB002840F0FF80E06D14F045FB8768002F00F0F880E079022840F0F9
:201BB000F480E08A3A7912212B4614F033FB0028024604904CD0A38BB4F81690002B47D0CC
:201BD000ADF80C303879ADF80E00104639683A790BF0E0FA8DF81450C9498DF8156010200C
:201BF0004A4603AB06F04EF85FFA80F9B9F1000F14D1E06D13F074FA386813F015FF3846F8
:201C100012F01AFAE06D14F00DFB002840F0BD80606D4FF0804114F00DFBB6E003A8122163
:201C300014F00CFBB1A012210DF07AFF48460EF05FFF074648460EF05BFF13F0F5FC81B24B
:201C500038460DF06DFFC9A002210DF069FF9CE0C7A01121F9E7A06D13F042FA5FEA000909
:201C700000F093800746B4F816A03888401E00F08380401E2DD0801E04D0001F74D0083821
:201C900061D07FE0D9F804707A884FF6FF70904278D0BF491020334605F0F4FF002871D08D
:201CB0007868B7F800B0824613F0E9FE10B1504614F0ACFA17980BFB00F1504614F0A2FA46
:201CD000504614F09BFA7A88B049102005F0DAFF58E0B978206B4A0932D2080952D3E079F2
:201CF000022829D1A78B3FB3A07A012824D0A6725046122132462B4614F08CFA0890C8B1F0
:201D1000A18BADF81E60677AADF81C1007AB07707B49607A8DF82450E28A8DF82560401C20
:201D30006072102005F0AEFFC0B218B107A8122114F084FAA57225E0022013F0D1FC21E041
:201D50000FF0C2FE1EE029462A460AF013FBCD49CC4A2B46B0FBF1F15143401A5246C8490E
:201D70000090102005F08EFF786812F065F909E02005002078720100786800F02FFC7868DD
:201D900013F052FE484612F057F9A06D14F04AFA00283FF460AF5FEAD80043D3BA48008880
:201DB000ADF80C00E08A122102222B4614F032FA0346E08B059320B9A78B17B1781C80B21B
:201DD000E0831F1C2ED0E28A60B3ADF81000022003ABADF812001888388004AB8DF8196097
:201DF00047498DF81850102005F04CFFC0B2A8B987A019210DF094FEA748007800902F46B7
:201E100001909E490297E28A3B46102005F03AFF08E0C0460700D0C0DC05002083A020216C
:201E30000DF07EFE5FEA580016D3A079012813D0A583208C6583E78A2583001FADF846008B
:201E50002079267212F0E2F88B4900900DF146033A46102005F016FF5FEA980027D30DF127
:201E70005201284601F8010B401C0628FADB78A012210DF055FE3DA002210DF051FE83487B
:201E9000007812F0C3F88DF849508DF84A508DF84B500DF152018DF848000A6813A80260F3
:201EB00089888180734912AA102005F0EBFEE08A5FEAD8516BA764D31221CA222B4614F0C1
:201ED000A9F9618A0B90E8B9A06C6378A5721221401CA064581C60700AA814F0AFF9606D29
:201EF0004FF4800114F0A6F94BE0C0464641494C2046524F4D20434C49454E543A2000C0D1
:201F10000F4401000A1202700B98614B4170022013F8011B0B9A8154401CCB28F8DBA08BBF
:201F3000ADF828008DF83050E28A5C498DF831600AABCA20ADF82A00102005F0A3FE608A7A
:201F500041F288316570401C80B2608281420ADC06A002210DF0E4FD38460D210DF0E0FD6A
:201F7000206B0EF0A7FEA5700BE0C0460A0D00C0416C6C6F636174696F6E204552524F5296
:201F900021005FEA1860FFF4C9AD03E025AB0010B17F0110E08A1221CA222B4614F03AF9B1
:201FB0000028618A0E903FF4A9AD0A1202700E98384B4170022013F8011B0E9A8154401C4D
:201FD000CB28F8DBA08BADF834008DF83C50E28A32498DF83D600DABCA20ADF83600102060
:201FF00005F050FE608A41F28831401C80B2608281420ADC2A4802210DF092FD38460D21D2
:202010000DF08EFD206B0EF055FE6570A57085E54E6F74696669636174696F6E20656E61BD
:20203000626C65642E2E2E0A0D00C0464552524F5220656E61626C696E67206E6F74696628
:2020500069636174696F6E2E2E2E0A0D00C046C04175746F20636F6E6E656374696E672E13
:202070002E2E00C05245414348454420353030302E00C046C1A600000D340100130C010066
:202090007D3B010040420F009C6C0100CC120020E8060020B0070020450500200F4401003C
:2020B0007C1F00002DE9F84F5FEA000A27D1002012F0B6FF23E050460EF009F862E2317C6D
:2020D000012940F07E80C078002877D098F80000400088F80000B8F802004000A8F802000D
:2020F000B8F804004000A8F80400B8F808000001A8F808000120307750460EF08BFE0AF1F7
:202110006606707D002800F064824FF489700AEB00094FF4A2700AEB0004717C4FF4C6706A
:202130000AEB000B00290AF186080AF1EC050AF10607DFF8A404C2D0012946D0022931D06C
:20215000032957D0062900F0A480072900F01E82082900F0F180092900F00F810A2900F0B2
:20217000B3800B2900F0CA800C2900F013810F2900F04981112900F06A81122900F038810A
:20219000142900F0CE81162900F06C81182900F09D81F02900F00082FC2926D0FE2900F08B
:2021B000048284E7317C012985D1C078002800F0828150460EF02EFE1621F1E1B888F18B19
:2021D00010E050460BF06EFDDCE1317C01290DD1C07800281CBF012088F80A008CD1B8880E
:2021F000B8F80C10884200F09581F1E150460CF0C0FEC7E1317C012941D1807850B1002067
:20221000B071A078012805D10020A070002150460EF0E2F9A87B01280AD10020286068601F
:202230000621012088F80E00504611F023F866E7E87B012818D150460EF0ECFD002088F827
:202250000E0001203070504610F0D8F90120B07100206873697A387806291ABF00221A2103
:20227000002213F0F7FF4AE799F8050001286FD0308B401E308380B200284CD0A8E15046A3
:202290000BF0E8F93074F08A30830020A873E8739FE1307C01280ED1A87A01281FD15046E6
:2022B0000EF0B8FD002028722873E872A873A872E873687323E750460FF062F83074F08A2A
:2022D00030830020A87284E1307C01280DD1E87A012802BF002088F80E000B21A4D0308B94
:2022F000401E308380B2B0B172E150460FF095F93074F08A30830020E8726AE1317C012947
:2023100016D1807808B103218EE7308B401E308380B20028E8D1297A3878012903D1222109
:2023300013F09CFF29E10022222113F093FF24E150460DF02DFD25E1307C012814D1287CC5
:2023500002280AF1FD0204D13978002013F052FFD2E6308B401E308380B200280CD13978E3
:20237000222013F047FF08E150460DF061FA3074F08A3083012028742AE1317C012905D1A5
:20239000807810B1B88B3883B6E694E050460DF0FFFFF7E0307C01280AF20D1121D108789D
:2023B00001280DD14878012809D1B9F8020000900020CA78B9F80030397813F017FF9BE672
:2023D000308B401E308380B2002810D1B9F8020000902220CA78B9F80030397813F006FF85
:2023F000CBE00120887050460CF038FE3074EFE0317C012903D180780028E0D15BE0504681
:202410000FF04CFABEE0307C01281CD16078012809D1207F0F281CBF002012F001FE00203A
:202430006070002100E7A078012806D10020A0702322504610F0D6FC61E6207801283AD1AC
:2024500000202070EDE750460AF088FB9AE0317C012903D1C078002821D12CE050460DF0BF
:20247000C8FF8FE0307C01282CD19BF80C00810648BF1821D6D4C10712D5207F16281CBFCD
:20249000002012F0CDFD9BF80C0000F0FE008BF80C0000233978607F00220AF051FC2BE6F7
:2024B000810708D500F0FD008BF80C000023397800221A20F1E7308B401E308380B20028FD
:2024D0005BD085E0504609F0FBFE5BE0317C012922D1C078C0B19BF80C009BF80B1059B9C7
:2024F000810610D500F0DF008BF80C0000209BF80A2039781346D0E700F0DF008BF80C0006
:2025100001208BF80600F7E57988BBF80800491C88425DD1282143E01821504609F0D0FE0A
:2025300030E0307C01282AD19BF800004FF4B3710AEB0105810614D500F0DF0001078BF8EC
:2025500000000BD500F0F7008BF80000288B0090AB8AEA8A698A387813F074FE0020287065
:20257000CAE5810704D500F0FD008BF80000F5E7308B401E308380B250BB222110E050461D
:202590000BF04EFE3074F08A308321E050460EF0F9FD0128E4D01BE0407AD0B199F80610CE
:2025B000504612F067FA012013E0B07E0F280CD1FC21504610F05EFE608900902389E2881E
:2025D000A188387813F042FE02E0002012F028FD0020BDE8F28F00BF5C4D00202DE9F84387
:2025F0000546CA4C2878E1790FF21038913800F04D811F380FF2083900F0B280203840F05D
:202610000A82A878616D002800F0A280401E00F09B80001F05D0401E7AD0C01F20D0BDE87D
:20263000F8836F78A7B96889E0820226E6710127A772072012F0BAF8A08B18B904F1F000F9
:2026500013F013FAAAA00A210DF06AFA3146D7E10020E0714FF6FE71E1822072BDE8F8831B
:202670002A69287B1118491E23E012F8017B07B31078022803D0032818BF3A4419D17F1EB5
:20269000521CFFB2022F11DB781091420ED91378E02B02D15378C02B06D0BF1E401E02F189
:2026B0000202FFB2F1D101E0012605E0012F08BF521C9142D9D800266779002E00F0AB816D
:2026D00095F80490082F05F1050880F2A48177B104F59D763D4640463146062212F02CF9F5
:2026F000002800F098816D1E06F10806F3D14246136804EBC70000F59C70811C0B60928869
:202710008A807F1C80F80190FEB26671BDE8F883404602210DF004FA48460A210DF000FA00
:20273000206B0EF0C7FA0020E0714FF6FE71E1822072A0832821A072B8A00DF0F1F9022046
:2027500012F0CEFFBDE8F8830020A071BDE8F883688920840846022113F06CFDBDE8F88397
:20277000022940F08C8028791B284DD1E86869890DF0D6F9E868E064E968097853291CD103
:20279000002004F5E47220820126E2630A27267004F5E471A78240F2E733216404F1380769
:2027B000638204F13806676404F13A036364206BC4F8C0600FF088F9E06C017850290CD12B
:2027D000404602210DF0ACF948460A210DF0A8F9206B0EF06FFAE06C0178206B542910D1A7
:2027F0000EF068FA0020E0714FF6FE71E1822072A0832221A07294A00DF092F9022012F0F7
:202810006FFF062011F0D2FF6878162837D028790B2832D0012802D1297A0A292DD013283D
:202830002BD0012802D1297A122926D07E2826D07F2805D0207A10B3284602F097F91EE05A
:202850002889AB4960842889C01E088087A00A210DF066F9648C20460EF04AF906462046D1
:202870000EF046F912F0E0FE81B230460DF058F9404602210DF054F901E00020A07229798C
:2028900005F1080013F0DAFCBDE8F88368780E383ED0801E00F0BC802E3840F0BC80A87841
:2028B0000C2840F0B880E878E0B973A010210DF037F9EA7975A077A1012A14BF031C0B1C2E
:2028D000EA79012A08BF081C12F0AEFE81B218460DF026F9404602210DF022F9E879E072A0
:2028F000BDE8F8836DA012210DF01AF9BDE8F883436F6E6E65637465642100C00A0D00C0ED
:202910005245535441525445442E00C020050020A88842F22201401A74D00D387BD164A00C
:202930000E210DF0FDF8A868AC688178407800EB01200EF0DDF80646A178607800EB012069
:202950000EF0D6F812F070FE81B230460DF0E8F8404602210DF0E4F859A00D210DF0E0F827
:20297000A8680179AC68C07800EB01200EF0C0F806462179E07800EB01200EF0B9F812F0B4
:2029900053FE81B230460DF0CBF8404602210DF0C7F84FA00E210DF0C3F8A868AC68817914
:2029B000407900EB01200EF0A3F80646A179607900EB01200EF09CF812F036FE81B23046ED
:2029D0000DF0AEF8404602210DF0AAF844A00D210DF0A6F8A868AC68017AC07900EB01206B
:2029F0000EF086F80546217AE07900EB01200EF07FF812F019FE81B228460DF091F8022128
:202A1000404671E73B49102005F03CF9BDE8F88308200FF019FCBDE8F883C0464449534345
:202A30004F4E4E45435445443A204741505F4C494E4B5F5445524D494E415445445F455631
:202A5000454E542E00C046C0444953434F4E4E45435445443A205445524D494E41544544D1
:202A7000204D414E55414C4C592E00C04D54552053697A653A2000C0504859204368616E7F
:202A900067656420746F3A2000C046C032204D62707300C031204D62707300C0504859207B
:202AB0004368616E6765206661696C75726500C04D61782054582062797465733A2000C0A5
:202AD0004D61782054582074696D653A2000C0464D61782052582062797465733A2000C074
:202AF0004D61782052582074696D653A2000C0465C0B002041B100102DE9F04FC54C207820
:202B10000E46F10BADF1340DC9036DD1B0085DD2606AA16A720807D2F00828BF86F00406FE
:202B300080F02B82002029E2858861B904F11800C74A00904FF6FF710223012013F052FB1D
:202B50000146A16219B304A800900027019702230293FF220392228B284608AB03F024FA05
:202B700058B99DF821009DF82020A16A12EB002204D0498928460FF0FFFCA16A228B08466B
:202B90003B464FF6FF7113F029FB0146A162206A00291CBF012186F001061FD168B143689D
:202BB000616A5BB18888002201219847206A676A4368B888032100229847616A888812F0B3
:202BD0001FFD12F011FA86F00106D6E10020014604F082F930B1012186F00206207809F0A0
:202BF000E1F8CAE10221F7E70AF0A6FE0028099000F0C18105462878B03800F05081401EBD
:202C100000F044811F3840F0B181A878801F00F03981C01E00F01E81401E57D0401E33D07A
:202C3000401E00F02A81801E40F0A281687806281FD12846808813F0CDFA071C19D0A07B35
:202C5000401E12D0401E0ED0401E12D1002140F209400A4601F034FE28468188387805224A
:202C700013F0B4FA05E0A988F8E7A88879790FF01DFC206A002800F07B814368002B00F000
:202C900077816A780221DFE012F042FD002800F06F81276A0FB1386878B9286900280CBF79
:202CB000E0690120698913F08DFA002800F060816889012113F082FA5AE1286900903C6893
:202CD00069892A7B6B7BE81CA04751E168784FF0000A002840F0A280A8794008C0F09E8070
:202CF000606A002840F09A800DF1120051460E2212F0C1FEA88813F06DFA5FEA000800F015
:202D10003781686900285DD05146814606220A9109F1110012F018FA20B34846062212F0FA
:202D300013FAD8B999F8100009F1110B57460B907F1C5846FFB28BF8007011F0DDFA0A280F
:202D50000BDA914B0B9A0101A1EB400158188079824202D1002FEBD100E01FB901200A90D0
:202D700057466F610A9850B909F111010DF11200062212F0E7FA99F810008DF818000A9824
:202D900001281FD06F69EFB1387C07F1110106228DF818000DF1120012F0D4FA08F10C002B
:202DB00008F10601062212F0CDFA08F1060007F11101062212F0C6FA387C40F0020088F8B9
:202DD00005000AE098F8050008F1060106228DF818000DF1120012F0B5FAA8799DF81F10F4
:202DF000C0F3800008438DF81F00A879000905D39DF81F0040F008008DF81F000DF11200FF
:202E1000294604F069F838B92078022108F0CAFFB1E0C046E41400204FF0150A12F082FDE3
:202E3000206A002800F0A4804368002B00F0A080A8886A7801219847BAF1000F00F0988001
:202E5000206A032152464368A888984790E0C04630730100E878291D002209F0E5FC0A2874
:202E700080F28680410001EB800005F10C0225300421C0B207F092FD7AE0A888297B0BF07E
:202E9000D5FE75E0A8880EF0D3F971E0287900286CD16888E9882A890FF06EFB66E0287946
:202EB000401E26D0083802D0743853D059E068781A284BD06888804612F02EFD022850D129
:202ED0002889012201280AD16889032807D1E868807820B9404611460EF0BDFF0246206A8C
:202EF00000283ED04368002B3BD040460521984737E02B7A688805F10807082B814625D17F
:202F100012F00AFD022821D1688900210EF0A3FF8046607D90B1484613F05CF970B119497D
:202F30000B784BB94179831D012201F001010846194612F0E2F801E001202075206A28B107
:202F500043681BB17888052142469847688812F057FB06E06A8812F0DFFC0146104611F0C6
:202F7000F7F9297905F1080013F068F9012002D0284611F091FE86F40046B0B20DB0BDE8D8
:202F9000F08FC0465A4F0020D61500202DE9F84FDA4DDFF86C832868DA4F807CDFF86893F7
:202FB00012F006FB296804460020487104F12E0A28680FF059FA012060711C2598F8010077
:202FD000401C88F8010080200BF0E4FE20607969C160CE4801894900AAF802105146C07997
:202FF00040008AF80000BAF804004000AAF80400BAF808000001AAF80800204611F0CCFDCE
:203010000520A081204611F09BFF386813F0D2F8062210F8081FC1F3801184F82E11811CF8
:203030004FF49470204412F08DF93968B84F09680020087141F62202A17938686943425246
:203050000022A179694301444A80A17969430844426099F80200400609D5AE48008841F24D
:203070000A4188420CBFAC48AC48C4F89C012046D4F89C118847A27939686A4311448873B8
:20309000A1793868694308440021C173A179386869430844807B8AF80B0094F8960108B9FB
:2030B00011F0BEFFA17938689D4E6943084494F89611491E01740022A179386869430844C2
:2030D00000214174A1793868694301444A82A179326802EB4112694301444A61A17969433D
:2030F000084490498161A07909F0F0FBA279316852018850A07940010A5822B907212046B8
:2031100011F0B8FCF5E008441F2202763068A179DFF814B200EB411000214176DBF80000DA
:20313000A17900EB011013F041F8A179DBF800203068DFF8F8B102EB011200EB41114A6021
:2031500004F16801A27900EB421252680A60A279520182588A60DBF8141091F800C094F885
:2031700006E05FEACC714CBF102100215FEA8C724CBF202200225FEA4C734CBF4023002327
:203190005FEA0C7C4CBF4FF0800C4FF0000C1143194300EB4E104CEA010141F00F01017248
:2031B0003068A17900EB41100B2141723068A17900EB4110042181723068A17900EB41103E
:2031D0005B49097801291CBFDBF828100978C1723068A179626A00EB4111CA60A17900EB0C
:2031F0004110A16A01743068A17900EB4110A16A090A41743068A17900EB4110A16A090C1F
:20321000817408214B48007808F0CCFD2168A2793868CB686A4302449360CA680A61CA6888
:203230008A60A17969430844017B01F0EF010173A179386869430844017B01F07F0101739E
:20325000A179386869430844017B01F0F00141F002010173A179386869430844417B01F047
:20327000F00141F0010140F6C4134173BAF804203068A1795A43DBF830301B6800EB411141
:20329000D21AA2F516724A61A17900EB4110C17C01F0F00141F00401C174A1793868694322
:2032B00008442168486099F8010080061BD54FF497702044408F1B2801BF4FF49770201877
:2032D000808F1B280BD14FF497702044C08FB0F5A47F04BFB4F86E01B0F5A47F03D014213D
:2032F00020460DF079F9144908200870A07988F80200BDE8F14F00F021B800BF184F00205D
:20331000684E0020AC4B0020E8320020844C0020F42F0020504F002007070100D915010086
:20333000383300205C4D00208C4E002080720100734F00206E4F00206F4F00202DE9FE4F3C
:20335000DFF85493D9F804601EB9BDE8F74F12F029BF3078DFF844A3D14FDFF8488301286D
:203370001CBF0228042841F64C5B05D0402818BF802800F0B78088E112F092FA0028FAD062
:20339000307806F0A3F90446656815B9002011F047FE98F8010000287CD002F0FBFF12F0A5
:2033B00007F90190006800900146466820460AF06FF8022847D02178022902D004291FD0C5
:2033D00063E10521397018B912F0E8FE5844A8602869C17E01F0EF01C1762869C17E41F084
:2033F0008001C1762869C17E01F0F00141F00201C176B068AC4908182969086202206DE050
:203410000621397018B912F0C9FE5844A860A7480068807C0FF04AFF2869C17E01F0EF0142
:20343000C1762869C17E41F08001C1762869C17E01F0F00141F00201C176B0689A49081854
:203450002969086249E000980078802811D10820387097480078012803D098F801000228BF
:2034700001DB012002E0DAF8280000787169C8720AE007208E4938700978706901291CBFE8
:20349000DAF828104978C1720198807988F802000098F6E0002C14D02078A6420DD1022804
:2034B0001ED0042805D181480068807C0FF0FEFE16E0002011F0B4FD12E0022802D0042802
:2034D00004D0E2E005203870022007E00620387076480068807C0FF0E9FE042089F80200F3
:2034F0002046CEE098F80100002800F0928002F051FF12F05DF8019000680290446898F88D
:20351000020012F055F8009012F0D0F90721084254D099F8020006F0D9F8054602996E6843
:2035300009F0B6FF022849D02978022902D004291ED040E00521397018B912F02FFE584446
:20355000B0603069C17E01F0EF01C1763069C17E41F08001C1763069C17E01F0F00141F0AF
:203570000201C176A068504908183169086270E00621397018B912F011FE5844B0604B48FB
:203590000068807C0FF092FE3069C17E01F0EF01C1763069C17E41F08001C1763069C17E9F
:2035B00001F0F00141F00201C176A0683E4908183169086261E0002011F032FD0098019938
:2035D000884224D002980078802811D10820387037480078012803D098F80100022801DB27
:2035F000012002E0DAF8280000786169C8720AE007202F4938700978606901291CBFDAF8F0
:2036100028104978C1720198807988F80200029837E012F04BF9072108423BD099F8020053
:2036300006F054F8054646F2A81428786E68022802D004280FD02DE00520387012F0AEFDF5
:203650002118B06812F0A6FD18B912F0A7FD5844B060022012E00620387012F09FFD211888
:20367000B06812F097FD18B912F098FD5844B0600E480068807C0FF019FE042089F8020001
:203690002846BDE8FE4F08F007BDBDE8FE4F002011F0C6BCBDE8F78F1C33002080720100DC
:2036B0006F4F0020684E0020F0D8FFFF184F0020734F00202DE9F043CB48CC4D00781E24E8
:2036D000002885B007D0052808D0062800F09B80072818BF082800F083817BE1C44E306838
:2036F000006800F108090F2199F8000008421CBF00F00F01062906D002291CBF00F00F0060
:20371000012840F06D81062209F1020102A811F019FE99F80000B74FC0F3801800F00F008A
:2037300001283DD1062209F10801684611F00AFE99F800004FEAD0196946484612F026FD4B
:20375000D0B13868807C022818BF03285AD105F10D01684612F016FD002853D03968012011
:20377000C8720622707940F004007071694638680C3011F0E7FD13E02878814510D1062207
:20379000691C684611F078FA50B12878717960F38201717106223868691C0C3011F0D2FDD7
:2037B00002A9404612F0F2FC00282BD0706902A9001F0FF0B3FD002824D1294602A810F02D
:2037D0009AFBFF281ED03968897C60432C180A0018BF02290BD0012918BF032912D12A5C25
:2037F0007069611C001F12F0C9FC10280AD0706902AAE11D001F0CF02DFE062202A9E01DD2
:2038100011F0A0FDECE07C4E3068006800F108090F2199F8000008421CBF00F00F00012854
:2038300075D1062209F10201684611F08BFD99F80000724FC0F3801800F00F00012845D1FB
:20385000062209F1080102A811F07CFD99F800004FEAD01902A9484612F098FC10B3386824
:20387000C07A022818BF032851D105F10D0012F081FC00284BD105F10D0102A812F082FCBC
:2038900000282ED03868062202A90C3011F05AFD707940F004007071062202A9E81D11F014
:2038B00051FD13E02878814510D10622691C02A811F0E2F950B12878717960F382017171FA
:2038D00006223868691C0C3011F03CFD6946404612F05CFC00284BD02946684610F00BFB20
:2038F000FF2872D004FB00F83868817A05EB080459BB807C11F05CFE074697F82E01022821
:2039100011BF032815F8081000F0010081425CD14FF494703D1806222946601C11F0ACF941
:2039300030B906222946364811F0A6F900284CD0012087F82E010622707940F0080070719C
:203950006946284611F0FEFC0EE0306915F80820611C001F12F012FC102836D030696A4650
:20397000E11D001F0CF076FD06226946E01D2AE03868817A49BB807C11F01AFE074697F83D
:203990002E01022818BF03281FD16A46414628460CF003FCFF2818D060432C1804F10D0034
:2039B00012F0E8FB10B9607F01280ED187F82E810622707900F0F70040EAC80070716946BA
:2039D0004FF49470384411F0BDFC316809680020087105E0002011F023FB862012F0C6FB2A
:2039F00005B0BDE8F08300BF6F4F002078250020D04B00203C330020AC4B0020184F002028
:203A1000DC7201002DE9FF47C44C0F460646F80B80F05981B80880F04681207BDFF80893E9
:203A3000B90F80F0BA80A07A002840F09A803809C0F09980E07A20B10020E07205200FF0AD
:203A5000ABFE00254FF00108B549657004F178002A4684F8088011F0F9FF607901281AD1A6
:203A7000A079C0B9DFF8BCA2DAF8000000283CD048460068006B8047A1695346401A000B39
:203A9000E0611968226A8018B0EBC11F98BF20622BD9256201E084F8058040F60900208789
:203AB000A24994F845000A1D00F0F00040F0010084F845001368658794F8440000F0F0002A
:203AD00084F8440023F002001060E5636FF002020A6004F1380341F8103C08688008FCD300
:203AF0000A60486840F002004860914A1068914920F00200A56140F400701060032341F80A
:203B1000043C41F230038B604046086050238B6008604FF4CA638B60086041F80C0C02201A
:203B300015600FF039FE112008F0FAF9307C10B90E2008F0F5F925726572A078012803D0A3
:203B500006F1400012F00EFB7B4811F05BFE7B490878F8B10D7004F1D400042111F03AFC67
:203B700018E0380914D2B80BC0F0CE8004F1280011F077FF061C08D0706830B17568F068D9
:203B9000B6F91C1000222023A84727F40057BBE00020A07227F00807B6E020B104200FF0F7
:203BB000FBFD00202073B168088840F602084FF0000A80450AD0B0F5C15F07D00A8B4FF603
:203BD0001F60104040F43470088306E00A8A4FF61F60104040F434700882A069D8B14D468E
:203BF000686D016804208847A8B12868006B8047A169814226BF401A401E401A000BF0604A
:203C1000708AF168401840F6C411F06081422CBFB0F5FA7FF160B5699DB14948A84210D0AA
:203C300094F8450010F00F0F0BD1718D08F10700884206D130466FF4807152464FF00073F6
:203C5000A847404904F17800524611F0FFFEA07958B10220ADF80000684610F045FA84F887
:203C700006A0BDF80800A4F87400012060702079401C207104F1240084F807A011F0F1FE1E
:203C9000002808BF47F0020702D0192011F078FD75692DB1514630464FF080630A46A8473A
:203CB00027F0005730E004F13005284611F0D9FE06F0F0FE284611F0D4FE27F0020708B108
:203CD00047F0020720E012F049FA014604F12C0011F0C7FE0646B569A80810D27EB125EAE7
:203CF0000500B061084612F035FA706850B12A46F068B6F91C1075680023A84702E0084684
:203D100012F028FA27F4804727B104F1D400394611F060FB0090BDE8FF87C046580E0020CA
:203D3000DD4801002C3300208C01001010100440000004600C410440899D00002833002037
:203D5000DFE60000A99F0000BB482DE9F84F0025BA4CB849056094F8E200002800F06581E9
:203D7000012800F02F81B64E02283CD0032840F05C8151F8250CD4F8B8100029A0F5C0600C
:203D9000C4F8D400B8BF49420028B8BF4042814226DA4FF08057D7F8A4014568B4F8BC00FE
:203DB00030214FF47F42082300903046A847D7F8A4014568B4F8C00004214FF4F80212235A
:203DD00000903046A847D7F8A401B4F8D070456820214FF440620A2330460097A84701255C
:203DF00084F8D8501CE151F8258C11F029FD2F4600B901273946934F38680028FCD0B146AF
:203E1000012609F10409D9F82CA03E6009B111F01DFDCAF30720C4F8BC0011F011FDAA46F9
:203E300000B9B2463B68002BFCD0D9F800B0BAF1000F3E6001D011F009FDCBF38440C4F838
:203E5000C00011F0FDFCAA4600B9B2463B68002BFCD0D9F81C90BAF1000F3E6001D011F0B6
:203E7000F5FCC9F38120C4F8D000B8F5C061C4F8B81000F09C8094F8D80068B9C4F8D410D5
:203E9000D4F8C000C4F8C800D4F8BC70C4F8C470D4F8D030C4F8CC30D4F8D410D4F8BC302E
:203EB000002954BF02206FF0010004F1C802176801EB41014018411000EB917107EBA1009F
:203ED0001060D4F8C810C4F8C43000291CDD1E293CDDD4F8CC0030B93429B4BF15391E21AE
:203EF000C4F8C81025E02A29BABFD4F8C8000B381E20C4F8C800D4F8C4003F28B4BF401CEE
:203F10003F20C4F8C4001FE0D4F8CC00032812D011F10B0FC6BFD4F8C8000B30301CC4F896
:203F3000C800D4F8C4000028C4BF401E051CC4F8C450032508E011F1150FC6BFD4F8C800D0
:203F50001530301CC4F8C800C4F8CC504FF08057D7F8A401B4F8C43030214FF47F42456838
:203F7000374800930823A847D7F8A40104214FF400321123456832480096A847B4F8C86043
:203F9000D7F8A40104214FF4F802122345682C480096A847D7F8A40120214FF440620A2399
:203FB000B4F8CC60456826480096A84701E084F8D85040F2FF50404502D8801C40452FD2F2
:203FD000082030E051F8251C1F4F4BF2F5204843060A3868C0F3814001280CD11B480068CF
:203FF000006880470EF04AFE11F036FC3111C010484306EBE03694F8E50030B91448006847
:2040100020F07F408019460801E084F8E5501148310C0660012741600F4D8760287808B9DF
:204030000B2000E0052084F8E40003F05FFDBDE8F88FC0462D400C402C500C40781700202F
:2040500000A00C4000800C40B43F0050EC010010102009403C600C40FE710100F0B5A24CF4
:20407000A24D2778A248A34BA34AA4490D2F83B041F2064600F22F81DFE817F035012D012E
:204090002D012D012D010E004E002D019600D900D9000A010A01110199494C881480022C14
:2040B00003602FD940F20442A41A29D0641E29D040F2FB32A41A1CD00A3C012C19D940F637
:2040D000F632A41A1ED0641E1AD0641E012C19D9241F15D0641E15D0641E11D04FF47E72CA
:2040F000A41A0FD0641E0BD0E41E09D0641E012C0DD88A7B4E80252A0CBF2722521E8A73A4
:20411000804945E0002010F08BFF852086E0002010F086FF842081E07B494C881480022CE8
:20413000036037D940F20442A41A30D0641E31D040F2FB32A41A23D00A3C012C20D940F691
:20415000F632A41A26D0641E21D0641E012C21D9A41E13D0A41E1AD0641E1BD0641E16D031
:20417000A41E0BD040F2F632A41A13D0641E0ED0E41E0CD0641E012C02D910E0634907E04C
:204190008A7B4E80252A0CBF2722521E8A736049016045E0002010F043FF85203EE00020F8
:2041B00010F03EFF842039E05A498978FF295DD003601C24584B1B686143194440F20444B8
:2041D0004B8813801B1B012B544A4FD94FF47F741B1B17D00A3B012B17D940F6F6341B1BF7
:2041F00016D09B1E012B84BFDB1E012B10D99B1E012B78D940F2FD341B1B09D05B1E012B46
:2042100003D907E041F2024301E04FF4A0534B80026005E0002010F003FF852011F0A6FFBD
:20423000287803B0BDE8F040012107F0BBBD4888108040F20442801A55D040F6FC72801AE0
:2042500015D008384FD04FF47F72801A22D1344C344A2468344800680023CDE900230834A3
:20427000324B24680222A04731490880F7BD092F10D130480068408960B12F4800780CF0A6
:20429000ADFB0021002011F061FF00202070F7BD48881080002010F0C3FE85201FE04888AB
:2042B000108002280DD940F20442801A1BD040F6FC72801A05D0083815D04FF47F72801A4B
:2042D000E8D1887B801CC0B2B528A8BF6620887300204880F7BD002010F0A2FE8420BDE89A
:2042F000FE4011F043BFF7BD6F4F00206E4F0020204F0020515A0100504F0020CC320020E6
:204310009C4C002005E000006C4C00209D2F0000DDE80000684E0020F42F00206984000031
:20433000F04E002002000080EC4E002015390100424F002040330020714F00202DE9F44F67
:20435000A84F81463868407901280C461E4604D004200FF0F1FA012801D10C2040E1A24843
:204370000078092818BF0A2804D00B281CBF0C280D2801D1212033E143F6FD70A9F10401C4
:2043900081423CBF211F814280F0D880A145C0F0D5809DF8000018B1012840F0CF8002E0B1
:2043B0000A9800286DD0300018BF012E03D0022E18BF032E65D10B9D280018BF012D03D0C7
:2043D000022D18BF032D5CD111991098814258D30C9840F67B41821F8A423EBFBDF8342021
:2043F000921F8A424DD2BDF83410814249D3BDF83800B0F5FA7F44DABDF83C100A3940F696
:20441000774291423DD2BDF83410401C49004843BDF83C10B0EBC10F33D20EF00FFF012822
:2044300008BF3A201FD09DF80000002804BF0A98002826D002F0A6F85FEA000808BF09204B
:2044500011D0396898F80600887432463868A0F8069004819DF80010817240200A9907F0DB
:204470003FFC08B10B20BBE008F1610140460EF0E9FA08F12404A07D022803DA40460FF0E6
:2044900027FA5BE03868DFF864B1DFF86491DFF864A1C572280018BF012D07D1E8073868B1
:2044B00054BF4946594606220C302BE00AF10D0011F060FE70B1E80754BF49465946284616
:2044D00010F0F8FF002839D0E80754BF49465946062208E00AF107010AF10D0011F032FE28
:2044F00006220AF1070138680C3010F02BFF05F001008AF80000E80758BFCB460622594625
:204510000AF1010010F01EFF9DF8000050BB88F82E614FF4947008EB00090A990622484627
:2045300010F010FF022E18BF032E1BD10A9A06F0010150460BF031FEFF2801D112204FE082
:204550001E2148430AEB000505F10D0011F012FE002804BF687F002804D10622264948467F
:2045700010F0F0FE11F0EAFD606010F067F92060BDF83400E081BDF83C006082BDF83800AB
:2045900020823868C07C20720220A0720020A08111F0D0FD0C2190FBF1F10C2202FB1100E2
:2045B000401DE07504200AF0F5FB396808600120487198F8060002F0C7F90B48007870B90C
:2045D0000E48007810B10E480FF0CEFF3868807C0EF06CFE044906200870FEF7AFFE002069
:2045F000BDE8F28F184F00206F4F0020344E00202C4E002078250020DC720100784E0020F2
:20461000CC4700202DE9FE4F0F46994C0168616241688068A0609748616080479648616AED
:2046300001606168DFF870B24160A168DFF8648281609249002FA246C16069D03D68E878AE
:204650008DF8080028798DF8090002A811F06EFDA86808B18A490160E86808B1894901603F
:20467000894C2878207068786070A878BE68A0703178E1707368636072696261B168A160CF
:20469000F168E160316921612E697B68A6621868A0616869E062A8692063287F84F8340053
:2046B0002A6AA263786886681EB9002010F0B8FC00E026627868C06818B9002010F0B0FCCB
:2046D00000E060627868406818B9002010F0A8FC00E0E0612869A062F86881680E6806B9D9
:2046F0006B4E6A494FF001094E60C66881F801902EB9002010F094FCF868454601E0454621
:204710002E6000685C46FE68A0617068E06106E0002010F085FC4FF001095C4645462868E4
:204730005E494668621C04F114035020B04710B1286880688047DAF804008047594F0026B8
:20475000834669467E7056483E700422206130460FF024FA0098B0F5801F0CD020B90FF0CD
:20477000B5FD05F0DBF808E00EF0ECF910F066FF0420788001E00FF0A9FD4B4FB0462868BD
:20479000C7F808808069A660804778604748468080F80090142010F0D3FFFF211422A06279
:2047B00011F069F9E01CFF21022211F064F9142010F0C6FF3E49086008681422314611F0E2
:2047D0005AF93046FCF7F6F848460FF0E9F839480188FF2906D1022101807822001D3146D6
:2047F00011F049F9032011F09DFC042011F096FC052011F08FFC062011F088FC07200CF073
:2048100049F92D4E0820307006F1400011F07AFC0CF060FC363605200A21324610F0E6FAE9
:2048300038B14046C0F10901401C06F8011B0A28F8DB2F68214909200DF10A0201AB7D68FE
:20485000087010204146A847A06AE2690A270A309DF80A1000F8011BDAF808107F1EF7D158
:20487000921E5846E261884702F0E0FDBDE8FE8F4819002041490010F84400208C62010061
:20489000A94101004D520100D01B0020101E00204F2C0100C81E0020D41C00202549010023
:2048B00025530100C41E002010330020C01E00204C330020781A0020E414002062330020EE
:2048D000FEB51446A64DA84A03460026A3F58063192B1BD8DFE813F03A0133012B0123012C
:2048F0001A0115010D010701FC00F000E800E000CE00C2001A00B800960080007900640058
:204910005B00510047003A0030002500282880F29980022940F09680218811F0EFFB0646D9
:204930001CE1012940F019812178284641750121017508F0A5FA11E1012940F00E81002C83
:2049500000F00B8128461330024614E0102940F00481002C00F0018128465C3010222146BF
:2049700010F0F0FCFAE0012940F0F780002C00F0F4802A46921D1046B9E0262940F0ED8006
:20499000002C00F0EA80284626226C30E7E7012940F0E380002C00F0E0802846401DA6E0D7
:2049B000602900D144B9012940F0D780002C00F0D48028460D309AE005F1920021466022D9
:2049D00010F0C0FC01206873C8E0012940F0C580207811F08FFBC1E0012940F0BE802178D3
:2049F000022900F3BA80284600F10C0211702178022918BF301C02D11021C172012011F021
:204A100075FBABE0072940F0A880611C6846062210F030FB20786946324607F005FF044681
:204A30000A2C0FDA11F05EFB38B9204604F022FD0FF012FE0CF04EFB90E0284601212C30D3
:204A500001558BE0022689E0012940F086802178042980F2828028460E305EE001297CD1F9
:204A70002A462178D07B0028D17377D12078012874D1DFE72846027B01296ED1022A04D0FE
:204A90002178072901DB102904DD022A65D12178102962D1C17261E001295ED121780A2947
:204AB0005BDA2846093038E0012956D12178022953DA2846083030E000294ED111F012FBA4
:204AD00010B910F018FDB3E728460121103024E0042942D12168234888423ED32B4603F106
:204AF0001C0001603AE0012937D128460A30217813E0012931D1217802292EDA2846C01D66
:204B10000BE0102929D128464C3027E7012924D12178022921DA2846001D01701EE001296D
:204B30001BD12178042918DC2846C01CF5E7012913D12178022910DA2846801CEDE70229D4
:204B50000BD1218810461530018007E0012904D121780229D8BF101CDFDD18263046FEBD0C
:204B7000E41400203F420F00E51400202DE9F04F0646A04FA14D387A0FF2F81BADF1340D41
:204B9000012800F0BD80022861D0032840F0D68096F80490B9F1050F4ED1B6F80880B8F1C5
:204BB000000F43D0002442F6021A01E0641CE4B2A0453BDDB07A01281BD00228F6D1F068D0
:204BD000650007F19C01102205EB04152818801C0FF0B2FE0028E9D15AA012210AF0A0FF5D
:204BF000F068F46828184178285D00EB0120B8831AE0F06800EB8400C178807800EB01202E
:204C10008245D3D154A01B210AF08AFF584602210AF086FFF268600000EB04101118497883
:204C3000105C00EB0120F88396F80490B9F1050F02D170781A2802D0B9F1010F7ED107F5BD
:204C50008A7010F012FF0020B872387276E04AA013210AF065FF584602210AF061FF3079AF
:204C7000012807D149A014210AF05AFF584602210AF056FF308938B94AA014210AF050FF90
:204C9000584602210AF04CFF3179072916D1308978B1F1684A78087800EB022038838878F8
:204CB000CA7800EB02201C21788344A00AF038FF3179072902D170781A2801D001293DD168
:204CD0003E8B7C8B002E39D0294602A81022103108F060FAADF818601025ADF81A4003206B
:204CF000387202A98DF81C502A460DF11D0008F051FA38790FF08AF93F490094731C18E0BA
:204D1000307903281AD102A82946102208F042FA022432A017213C720AF002FF5846214667
:204D30000AF0FEFE38790FF071F9102502AB009533490190FA8A284602F0A4FF0DB0BDE8E6
:204D5000F08FC04644617461204368617220466F756E642E2E2E00C04343434420666F72CC
:204D70002044617461204368617220466F756E642E2E2E000A0D00C0424C455F4449534319
:204D90005F53544154455F53564321004154545F4552524F525F52535020464F554E4421D4
:204DB00000C046C066696E6442795479706556616C75655273703D3000C046C0466F756E22
:204DD000642053657269616C20506F727420536572766963652E2E2E00C046C04469736356
:204DF0006F766572696E672073657276696365732E2E2E0020050020FD5501009E6C0100F8
:204E100019F900002DE9F0439E4C201D04F15401ADF1740D0CF052FC04F16C0004F1AC014A
:204E300008F052FAE06204F1780010F0D5FCA06504F1840010F0D0FC4FF47A720023824937
:204E5000E06504F1F0000DF0BBF88049C822042304F58A700DF0B4F80BF0DAFC00250827CD
:204E7000A5621AA88DF8687010F0D2FCDFF8E08102224FF47A631020414602F003FF1020D7
:204E900019226423414602F0FDFE102003224FF47A63414602F0F6FE6E4E6F4906F122005D
:204EB0002A4615230090102002F0ECFE4146102015223B4602F0E6FE4146102016223B46E9
:204ED00002F0E0FEA846012081468DF86900634DCDF82C804FF481628DF86A8004238DF8CC
:204EF0006B800BA88DF86C9029460090102002F0C9FE0DF169004FF4806200904B4629467F
:204F1000102002F0BFFE0DF16A0040F2024200904B462946102002F0B5FE0DF16B0040F2C4
:204F3000034200904B462946102002F0ABFE1BA840F2064200904B462946102002F0A2FE32
:204F50004749102002F09EFE20790FF05FF845490246102002F096FE434910204FF0FF324C
:204F700002F090FE414910204FF0FF3202F08AFE0DF0E8FB3E4904F1640510202A4602F0A6
:204F900081FE10F0A5FB20790FF040F839490246102002F077FE20790FF038F83649024622
:204FB000102002F06FFE35491020FB2240F6480302F068FE0CA806F13701372208F0EAF898
:204FD0000CA810F031FB81B20CA80AF0A9FD0E2007F01CF904F13C0005F5B27504F1400198
:204FF000056000F5C670086040F2E73060820839616407F0E5FF08F01BF901A84146282217
:205010003B4611F06BF8CDF81480CDF818800526CDF8208001A942461948079611F05AF8D2
:2050300020650EF07FF8E06A4A4631460EF05EF8E06A424631460EF059F8206D11F046F85D
:205050001DB0BDE8F083C04601570100F1560100BD8401109C6C010091F30000D1480000BC
:205070008DD70000E1580100094C0100C14F01001D4E0100518801103181011021B1001020
:20509000A1500100200500202DE9F04F0C46E00789B00CD510F096FA30B1002181608448E2
:2050B0000068010018BF804784F00100FCE02007804D40F1878080480068807C10F078FABE
:2050D00082464FF494709AF82EB10AEB000800200790814678480068807CFF2804BF002097
:2050F0000FF09EFF4246594628460BF056F806461E20704300902F184146584611F046F8AE
:20511000A8B1FF2E2BD00098285C40F0020BF81D079007F101080BF001008AF82E01062223
:205130004FF494704146504410F00CF917E04146584610F0BFF9002818BFFF2E0FD007F121
:205150000D0011F017F840B907F10D0011F012F8002804BF787F012801D14BF0020B564856
:205170000068C07A022818BF032806D105F10D0011F000F808B905F1070900200AF1060591
:2051900006905B46288E000905900022E88D0490A88DCDF8049040080390CDF800800798FC
:2051B00002900020297810F08DFFDAF89C014349884228780CBF0021012108F0EDFF84F035
:2051D000080071E0E00610D5002006900590049003900290019000900023002200210220EE
:2051F00010F070FF84F010005EE0E00413D5E91D05F10D0010F0A6FF3148426831480078E0
:205210004FF480510DF096F910B18E2010F056FF84F4805048E0A00505D510F011FB2A49AC
:2052300001200860FEE7600504D507F0FCFA84F4806039E0600405D5812010F03FFF84F4BF
:20525000804031E0A0042ED5204D286810B100200FF0E6FE4FF0FF3028600BF091FB1C4D1F
:20527000296820316846096888471A4841682D68194A00916B468168019100210291016970
:2052900009680391017B00688DF81010ADF812002D6812491248A8471249086003F012FBBD
:2052B00084F4005000E0002009B0BDE8F08F00BF204F002078250020184F00200707010098
:2052D000784E00206E4F0020FC002043044F0020F04E0020F81B00206C3200207C1D002021
:2052F000F82F0020EC4E002010B50B7884074CBF43F0020303F0FD0304064CBF43F0800329
:2053100003F07F0304074CBF43F0080303F0F70384064CBF43F0200303F0DF030B70AA21C1
:20533000084203D0107840F00C0003E018B9107800F0F300107010BD2DE9F0410F46154619
:20535000387802281E464FF0000866D1786801784078069C01EB002080B221001CBFB0F5EF
:20537000285F0B205ED14FF42851401A0CD0401E1ED0401E4BD0401E22D0401E28D0A23805
:2053900045D023383FD048E0F86810F076FB079A80B2031B9342B8BF021B92B21019162880
:2053B00003DA3280F86801190EE04FF00D0838E0F8680088022131802870000A687030E034
:2053D000062030800622F96828460FF0BBFF28E0F868B0B108213180018829700188090AD6
:2053F00069704188A9704188090AE970818829718188090A6971C188A971C088000AE87106
:205410000FE030800DE04A480078C00705D401203080F8680078287003E0A6F800804FF0C5
:2054300001084046BDE8F0812DE9FC4B0E46804630780027022891461D4675D17068017876
:2054500040780A9CDFF8E8B001EB002080B24FF42851401A0AD0401E2DD0401E50D0401E0A
:205470003CD0A3385ED0233858D05DE0F06810F004FB80B2A04204D32919162903DB0D2772
:2054900053E0072751E0F3682A46494618190FF059FF2C19F068A4B2C4F116020021204443
:2054B00010F0E9FADBF8040000283ED0026810003BD0002121E07CBB022DE0D199F800009D
:2054D00099F8011000EB0120F1680880DBF8040058B30268100028D001210EE0E4B9062DF9
:2054F000CDD1F068062249460FF02CFFDBF80400D8B10268100018D003214046904714E08E
:2055100054B9012DBBD199F80000010013BF0128F1680870802708E00B2706E09BF800001C
:20553000C00701D4032700E001273846BDE8F68B481E00202DE9F04F8246DAF800600C46C2
:205550005FEA0208ADF11C0D14BF00214FF0FF3106F14800834610F0ADFD002808BF0B20F2
:2055700000F00681002565708448F460B8F1010F057004D065700220F4600EF057FB207855
:20559000012840F2AB80801E012868D9801E012833D9801E012800F2DF8010F0DFFD069010
:2055B0004FF0805000F5EE77D0F8DC01A378466A009321782846062908BF0120019001209F
:2055D0000290A068228AE1686368B0478146069810F0C0FDB9F1000F40F0C080B8F1000F67
:2055F00002D00FF07FFE02E050460FF070F8002800F0A4803868806A2AE010F0AFFD06905C
:205610004FF0805000F5EE77D0F8DC01012306680093A168A27860682478AC46042C08BFD7
:205630009C466346B0478146069810F093FDB9F1000F40F09380B8F1000F02D00FF052FE0E
:2056500002E050460FF043F8002877D03868406880474949C1F8B0510D6081467EE010F02C
:205670007DFD06904FF0805000F5EE76D0F8DC01E38A87690093E0680190208B0290A078DF
:205690000390207D04900121059122782846022A08BF081CE1786268A368B84781460698CD
:2056B00010F058FDB9F1000F58D1B8F1000F02D00FF018FE02E050460FF009F800283DD057
:2056D0003068006A80475FEA000947D13068C569A168E28A2369E078A847BEE710F03EFD99
:2056F00006904FF0805000F5EE76D0F8DC01E38AC7680093E0680190208B0290A078039007
:20571000207D2946049001200590257805B9014608466268A368E178B8478146069810F0A1
:2057300019FDB9F1000F19D1B8F1000F02D00FF0D9FD02E050460EF0CAFF08B9142017E016
:205750003068406980475FEA000907D1306802692169E078904780E74FF0FF39B8F1010FB4
:2057700002D002200EF018F8584610F0FBFC484607B0BDE8F08FC046504502406133002088
:205790002DE9F04F0128ADF1140D40F0E980DFF808B2DBF8DC00012840F0DF800220CBF846
:2057B000DC0010F083FC029001200CF0A1FE5FEA000806D00120CBF8DC00029810F072FC41
:2057D000D0E010F06BFC4FF0000903906748684CC0F80090A06A016801208847012818BFB9
:2057F000CDF8009004D148460AF06EFB012000906048614FC0F800903868112010F03EF826
:2058100000280CBF4D460125102010F037F808B145F002050F2010F031F808B145F0040529
:205830000B2010F02BF820B12068544E016B308888470A2010F022F820B12068504E016B75
:20585000308888474F48012606602068816945F0200088474C48066010F00AF800F0010109
:205870000191400814D2206A8168484888478246BAF1040FF7D0BAF1010F04D1206A426875
:205890004248032190474249086820F003000860484600F083F823683868986B8047019876
:2058B00001280CD0BAF1010F04D1206A42683748314690473649086840F0030008602D4843
:2058D000066020684169284688470B200FF0D6FF20B12068294BC16A188888470A200FF054
:2058F000CDFF20B12068264BC16A18888847254806600322CBF8DC20234BC3F80090206870
:20591000416B284688470128F9D1386804200CF0EFFD044615481F490660386808688009E1
:20593000FCD30098012802D130460AF0CDFA0FF08DFF08200CF0DCFD07460398CBF8DC604E
:2059500010F0A8FBFBF722FB029810F0ABFB57EA040018BF4FF0FF3804E06FF0040801E083
:205970006FF00108404605B0BDE8F08F0C400940B8010010000222432C200940FA6D01008E
:20599000F66D01002820086080010443004003402422084014100940781700202DE9F84F91
:2059B000DFF8F4B10746ABF13500DFF8E0910068800880F0D98071480068006880477A4929
:2059D0000831D1F8008000254FEA28725FEA985102F101020AD2C0F13E0110F10A0F4FEAF6
:2059F000E101D8BF08218A42B8BF0A1C644BD3F87C11C1F304611629A8BF20391B68C3F334
:205A10000443162BA8BF203B9A465118162905DA11F10A0FB8BF6FF0090100E01521594B10
:205A3000594E01F01F0242F4F8521A80326812F0030F18BF0125D20828BF45F002050FB11B
:205A500045F004054A4692F90730C31A052B04DA9379AB4208BF918866D0DFF834E10F2889
:205A7000A0F10F0C25DB0CEB0013A3F1F00C4FEA2C26072E88BF07263446062C88BF06247F
:205A90005EF82470042303EB84037446E358DB1B03F0FF04EF0824BFC3F307273C44AF089A
:205AB00024BFC3F307473C446F0828BF04EB136401E0002426465EF826E0EF080EF0FF03E7
:205AD00024BFCEF307273B44AF0824BFCEF307473B446F0828BF03EB1E63A4B2ACEB062657
:205AF000AAEB01017443002904F1800403EB1423D8BF0121342408F0FF074C43A1B27943D4
:205B1000B1FBF3F14FF6FF738B4238BF191C802889B2918005DA10F1800FB8BF6FF07F007D
:205B300000E07F20D07195711A4800681F2910604FF0000008D340F2FF128A4206D24908BB
:205B5000401C8A42FBD301E01F219180134F0F39090940EAC10047EA0001CBF8FB1F002631
:205B7000CBF8FF6FBDE8F88F0D490E4F4A4608200F60921D1070BDE8F88FC046EC01001080
:205B90003C1100506E62084024220840303300209C130050082009403500094000E7A48036
:205BB00030100940FDFDA400AC3F0050F8B57E4E04463068C06E0025002840F0F1801020CC
:205BD0000FF0BEFD31680028C86600F0E7808F6E102221460FF0B6FB30680178002940F005
:205BF0008E80C16ED7F8982011F80CCF02F001030CF0010C634518BF0023520843EA420281
:205C1000C7F89820C2F34003D1F800C0CCF3400C634506BF530803F00103002322F0020279
:205C300042EA4302C7F89820C2F38003D1F800C0CCF3800C634506BF930803F0010300233E
:205C500022F0040242EA8302C7F89820C2F3C003D1F800C0CCF3C00C634506BFD30803F02D
:205C70000103002322F0080242EAC302C7F89820C2F30023D1F800C0CCF3002C634506BFB0
:205C9000130A03F00103002322F4807242EA0322C7F89820C2F34023D1F800C0CCF3402C21
:205CB000634506BF530A03F00103002322F4007242EA4322C7F89820C2F38023D1F800C07F
:205CD000CCF3802C634506BF930A03F00103002322F4806242EA8322C7F89820C2F3C0234D
:205CF0000968C1F3C0218B4206BFD10A01F00101002122F4006242EAC121C7F89810816E31
:205D100091F89520120718D5C26E5268C2F3C0029AB1C17841F00801C170D7F8980023490C
:205D30000840C7F898003068C06EC16821F48071C16049084900C16003E091F8330001281B
:205D50002AD0617808001CBF7878002808D13068C278120708D5002904BF7978002903D0EB
:205D70003168052008711CE06168C1F3800141B997F8951011F0040102D10121017110E057
:205D90000AD00078002819BF387821783978207810F07CF9054604E0182502E0132500E034
:205DB00011252846F2BD00BF304F0020FEFEFFFF2DE9FE4F04468946206846684FF49A7029
:205DD00004EB000AB06810F0E5F9002840F0DC8020680169484610F055F904F182078046FE
:205DF0003878002804F12E0540F6C41B6DD02189788810F043F902903878029902280CBF89
:205E1000BAF83000A888484301900BFB00F000902068009900690918484610F0BBF90028A9
:205E30004DD000983A89A8EB00010BFB02F3B1FBF3F003FB101101B1401C02FB00F12289F6
:205E5000029B9A1880186081FA880198101801EB00093878012849D104F1860120460EF05F
:205E70009BFE7889E189608400202077E08360890818A081AB883889B989984204BF2B895F
:205E9000994202BF7A89EB889A4207D00909009142087B89A179002010F0ECF8A888AAF84C
:205EB0003000387928703889A8807889E880B889288120460FF044F80220387016E038780C
:205ED00001281CBF00200FF0ABF8A8880BFB00F1B8FBF1F290B201FB128109B1401C80B216
:205EF000218941186181A98801FB00F9206801690BFB0912B26003782949802B0AD1C260CD
:205F10000B6BAA881B680BFB02F2D21A7369A2F516725A610278402A2FD1628A02FB09F2E2
:205F30004FF4C873B2FBF3F2521CC4F818906261B3689A1AB2606369DAF8002002EB4302DB
:205F500073695A61174A3B781268022B09D1A3792F7802EB4313D3F814900BFB0799C3F82F
:205F70001490A379096B096802EB4312AB880BFB03F3591AA1F51671D161B1688160E87ADD
:205F9000A87220460CF01DFE6189A08910F076F8E189814238BF0120AAF82E00BDE8F78F99
:205FB00080720100383300202DE9FE4F0D468146287AC00693461E464FF000080CD558466B
:205FD00010F054F8030000F0E3800A22294648469847002880464DD128780C9F0D9CDDF832
:205FF00038A002281AD168680178407801EB002080B24FF42051401A012810D9801E3AD09D
:20601000401E14D0FD3876D0401E00F07D80401E6AD0401E6FD0401E00F09180A7E0002C21
:206030002AD1E868017839800278416883E0002C22D1012038800021E868007830706889DB
:20605000401C80B210F00EF8398860B10278921C51183980418971704189090AB17002785D
:206070004168F01C68E0081D388004220021701C0FF001FD8EE0002C62D1E8680488042099
:2060900038803470200A70700DF1020120460FF0E9FF05001ED0EC68BDF802204FF6FF7961
:2060B0006B46494610F09AF840B92B786A683B4802210FF0D3FF08B9ADF800902078022861
:2060D0000AD161680222301D0FF03CF93888801C388001E0ADF80040BDF80000B070BDF803
:2060F0000000000AF07055E054BBE868016848460FF0DDFA02E01CBBE86800880221398058
:206110003070000A707045E0E8680FF0B6FC82B2A242B8BF4FF007083CDB944208BF00220C
:2061300006D00AEB04019142B2BF5246121B92B23A80E968214430460FF004F92AE014B181
:206150004FF00B0826E0E8680721398001783170417871704188B1704188090AF170017951
:206170003171C1887171C088000AB07112E058460FF070FF844658B10F980290CDF804A05C
:2061900000943B46324629464846E047804601E04FF00E084046BDE8FE8F00BF2273010035
:2061B0002DE9F0411C4615468C4208BF854282BF00230022E5E0002C08BF002D0AD1002900
:2061D0000EBF00286FF000006FF0000100F0E1F8BDE8F0815FF000085FF0000E002C08BF75
:2061F0008D429CBF2C1C0025070C47EA01470E0CB44208BFBD429EBF5FEA044444EA154421
:206210005FEA0545070A47EA01670E0AB44208BFBD429EBF5FEA042444EA15645FEA052575
:20623000470847EAC1774E08B44208BFBD4200F29380870847EA81778E08B44208BFBD4275
:206250007CD8C70847EA4177CE08B44208BFBD4266D8070947EA01770E09B44208BFBD42C6
:2062700050D8470947EAC1674E09B44208BFBD423AD8870947EA81678E09B44208BFBD421C
:2062900024D8C70947EA4167CE09B44208BFBD420DD8E60146EA5566EF01B14208BFB8425B
:2062B00001D3C01BB14158EB08085EEB0E0EA60146EA95664FEA8517B14208BFB84201D346
:2062D000C01BB14158EB08084EEB0E0E660146EAD5666F01B14208BFB84201D3C01BB141A2
:2062F00058EB08084EEB0E0E260146EA15762F01B14208BFB84201D3C01BB14158EB08082C
:206310005EEB0E0EE60046EA5576EF00B14208BFB84201D3C01BB14158EB08084EEB0E0E3B
:20633000A60046EA9576AF00B14208BFB84201D3C01BB14158EB08084EEB0E0E660046EA2A
:20635000D5766F00B14208BFB84201D3C01BB14158EB08085EEB0E0EA14208BFA84201D3FE
:20637000401BA14158EB08085EEB0E0EA34208BFAA423EBF2D0A45EA0465240A89D3734671
:2063900042461E4617460B46024631463846BDE8F08170472DE9FE4FDFF8D89199F8010014
:2063B00008B90EF03DFE0FF0F9FE4FF0000A00F6C4140027704E714D11E038460FF0F8F8C5
:2063D000417951B13268817902F80A100AF101015FFA81FA2146FFF7EBFC7F1CFFB2287848
:2063F0008742EADB99F80100824505D000200EF017FE82200FF0BAFE99F8010001281DD19C
:20641000002701E07F1CFFB22878874210DA38460FF0CEF8044660790028F3D03168A079C2
:20643000097888421CBF00200EF0FAFDA0799FE000200EF0F5FD82200FF098FE99F8011090
:20645000306809F077FE306800780FF0B1F800270068D0F80480012501E027466D1C7C1CFE
:2064700055450ADA3068405D0FF0A2F800684068D8F8081080688142EFD0FFB2002F1EBFA1
:206490002746F8B200284FF4D07802D13068047817E030680478012510E0415DD9F8042087
:2064B00008FB01F308FB04FC13446244B3F86231B2F86221934238BF0C466D1CFFB2BD4213
:2064D000EBDB4FF6FF7008F03DFE019040F6C41520460FF06DF80027006840680290019833
:2064F00040086843009017E020460FF061F801680A78802A03D1DBF81430009A5A610978FE
:20651000402908D11E498079096801EB4010009901F5A061C1617F1C574528DA3068C05D7C
:206530008442F8D0D9F8041008FB00F21144B1F86221CB895908914202D2991A8A45EADAC0
:206550000FF036F80068D0F804B0029A0198DBF80810926800EBD0704010A1F6C41105FB19
:2065700000200FF017FE0028BED03068C45D2046BDE8FE8F684E0020004F00207B4F0020A1
:20659000383300202DE9F0476F48DFF8C091007899F80010814200F0D480002700E07F1C72
:2065B000874280F2CB80D9F804104FF4D0727A43114409790029F2D1F8B20EF0F9FF8246F3
:2065D0000AF1040601203070B7700020707030620AF161070120787101210AF16800002218
:2065F00001714FF0FF08002101608160B180F1800AF1EC040121317300218AF8391071615F
:20661000317671830AF190010A70827680F818808022027300228273C2740AF20D100270D2
:2066300042708270C2704FF4897050440280428042710A710AF1E7010A704A7022606260D7
:20665000A272227322726273A273E27347F23051028142818281C2814FF4927050448161AD
:206670004FF4C6710AEB0105026080F80C80C2810277427780F81E800121A9720221E972E9
:20669000AA732A73324909786973AA718272027142718271C271027242724FF4B3705044DB
:2066B0002C4902702A701B220988C1802A49098801812A4909884180294909888180428128
:2066D0004FF4A471C18101828281C18201834282828241838183C1830184418481846A80B6
:2066F00001202871FF2204210AF1770008F062FA1F2087F8008087F8018087F8028087F806
:206710000380387100271748C1190AEB0702497882F8FD107F1C082FF6DB134828610020F0
:20673000207499F80000401C89F80000C0B2012804BFB07889F80200504603E000200EF0A7
:206750006FFC0020BDE8F0877B4F0020684E00205A330020464F00204E4F0020444F0020F0
:206770004C4F0020E8320020070701002DE9FE4F83460D46DBF80800DBF804400090286874
:20679000002800F0D1800FF0E9FCD4F8881021B10FF0E0FC03202874C6E001212974C4F8AB
